{
  "_format": "hh-sol-artifact-1",
  "contractName": "WavePortal",
  "sourceName": "contracts/WavePortal.sol",
  "abi": [
    {
      "inputs": [],
      "stateMutability": "payable",
      "type": "constructor"
    },
    {
      "anonymous": false,
      "inputs": [
        {
          "indexed": true,
          "internalType": "address",
          "name": "from",
          "type": "address"
        },
        {
          "indexed": false,
          "internalType": "uint256",
          "name": "timestamp",
          "type": "uint256"
        },
        {
          "indexed": false,
          "internalType": "string",
          "name": "message",
          "type": "string"
        }
      ],
      "name": "NewWave",
      "type": "event"
    },
    {
      "inputs": [],
      "name": "getAllWaves",
      "outputs": [
        {
          "components": [
            {
              "internalType": "address",
              "name": "waver",
              "type": "address"
            },
            {
              "internalType": "string",
              "name": "message",
              "type": "string"
            },
            {
              "internalType": "uint256",
              "name": "timestamp",
              "type": "uint256"
            }
          ],
          "internalType": "struct WavePortal.Wave[]",
          "name": "",
          "type": "tuple[]"
        }
      ],
      "stateMutability": "view",
      "type": "function"
    },
    {
      "inputs": [],
      "name": "getLatestParticipant",
      "outputs": [
        {
          "internalType": "address",
          "name": "",
          "type": "address"
        }
      ],
      "stateMutability": "view",
      "type": "function"
    },
    {
      "inputs": [],
      "name": "getTotalWaves",
      "outputs": [
        {
          "internalType": "uint256",
          "name": "",
          "type": "uint256"
        }
      ],
      "stateMutability": "view",
      "type": "function"
    },
    {
      "inputs": [
        {
          "internalType": "address",
          "name": "",
          "type": "address"
        }
      ],
      "name": "lastWavedAt",
      "outputs": [
        {
          "internalType": "uint256",
          "name": "",
          "type": "uint256"
        }
      ],
      "stateMutability": "view",
      "type": "function"
    },
    {
      "inputs": [
        {
          "internalType": "string",
          "name": "_message",
          "type": "string"
        }
      ],
      "name": "wave",
      "outputs": [],
      "stateMutability": "nonpayable",
      "type": "function"
    }
  ],
  "bytecode": "0x6080604052620000336040518060600160405280602581526020016200172b602591396200005b60201b620008441760201c565b60644442620000439190620001a8565b6200004f919062000245565b600181905550620002ec565b620000fb8160405160240162000072919062000168565b6040516020818303038152906040527f41304fac000000000000000000000000000000000000000000000000000000007bffffffffffffffffffffffffffffffffffffffffffffffffffffffff19166020820180517bffffffffffffffffffffffffffffffffffffffffffffffffffffffff8381831617835250505050620000fe60201b60201c565b50565b60008151905060006a636f6e736f6c652e6c6f679050602083016000808483855afa5050505050565b600062000134826200018c565b62000140818562000197565b9350620001528185602086016200020f565b6200015d81620002db565b840191505092915050565b6000602082019050818103600083015262000184818462000127565b905092915050565b600081519050919050565b600082825260208201905092915050565b6000620001b58262000205565b9150620001c28362000205565b9250827fffffffffffffffffffffffffffffffffffffffffffffffffffffffffffffffff03821115620001fa57620001f96200027d565b5b828201905092915050565b6000819050919050565b60005b838110156200022f57808201518184015260208101905062000212565b838111156200023f576000848401525b50505050565b6000620002528262000205565b91506200025f8362000205565b925082620002725762000271620002ac565b5b828206905092915050565b7f4e487b7100000000000000000000000000000000000000000000000000000000600052601160045260246000fd5b7f4e487b7100000000000000000000000000000000000000000000000000000000600052601260045260246000fd5b6000601f19601f8301169050919050565b61142f80620002fc6000396000f3fe608060405234801561001057600080fd5b50600436106100575760003560e01c8063449d46c01461005c5780639a2cdc0814610078578063a42a466314610096578063bd43a908146100c6578063dc74ee7b146100e4575b600080fd5b61007660048036038101906100719190610c26565b610102565b005b61008061055f565b60405161008d919061108d565b60405180910390f35b6100b060048036038101906100ab9190610bfd565b6105aa565b6040516100bd919061108d565b60405180910390f35b6100ce6105c2565b6040516100db9190610f44565b60405180910390f35b6100ec610713565b6040516100f99190610f29565b60405180910390f35b42610708600460003373ffffffffffffffffffffffffffffffffffffffff1673ffffffffffffffffffffffffffffffffffffffff1681526020019081526020016000205461015091906111aa565b10610190576040517f08c379a00000000000000000000000000000000000000000000000000000000081526004016101879061104d565b60405180910390fd5b42600460003373ffffffffffffffffffffffffffffffffffffffff1673ffffffffffffffffffffffffffffffffffffffff1681526020019081526020016000208190555060016000808282546101e691906111aa565b9250508190555061022d6040518060400160405280601681526020017f257320776176656420772f206d6573736167652025730000000000000000000081525033836108dd565b600360405180606001604052803373ffffffffffffffffffffffffffffffffffffffff16815260200183815260200142815250908060018154018082558091505060019003906000526020600020906003020160009091909190915060008201518160000160006101000a81548173ffffffffffffffffffffffffffffffffffffffff021916908373ffffffffffffffffffffffffffffffffffffffff16021790555060208201518160010190805190602001906102ec929190610add565b506040820151816002015550506064600154424461030a91906111aa565b61031491906111aa565b61031e91906112e4565b60018190555060326001541161046a5761036d6040518060400160405280600781526020017f257320776f6e21000000000000000000000000000000000000000000000000008152503361097c565b6000655af3107a40009050478111156103bb576040517f08c379a00000000000000000000000000000000000000000000000000000000081526004016103b29061106d565b60405180910390fd5b60003373ffffffffffffffffffffffffffffffffffffffff16826040516103e190610f14565b60006040518083038185875af1925050503d806000811461041e576040519150601f19603f3d011682016040523d82523d6000602084013e610423565b606091505b5050905080610467576040517f08c379a000000000000000000000000000000000000000000000000000000000815260040161045e9061102d565b60405180910390fd5b50505b3373ffffffffffffffffffffffffffffffffffffffff167f5f7e16dc676677766a70e9c5628aa6c54ddb8b6e5188e2ae1e1f17f1ffbea71642836040516104b29291906110a8565b60405180910390a26104f96040518060400160405280600d81526020017f25732068617320776176656421000000000000000000000000000000000000008152503361097c565b6002339080600181540180825580915050600190039060005260206000200160009091909190916101000a81548173ffffffffffffffffffffffffffffffffffffffff021916908373ffffffffffffffffffffffffffffffffffffffff16021790555050565b60006105a26040518060400160405280601781526020017f5765206861766520256420746f74616c20776176657321000000000000000000815250600054610a18565b600054905090565b60046020528060005260406000206000915090505481565b60606003805480602002602001604051908101604052809291908181526020016000905b8282101561070a57838290600052602060002090600302016040518060600160405290816000820160009054906101000a900473ffffffffffffffffffffffffffffffffffffffff1673ffffffffffffffffffffffffffffffffffffffff1673ffffffffffffffffffffffffffffffffffffffff16815260200160018201805461066f906112b2565b80601f016020809104026020016040519081016040528092919081815260200182805461069b906112b2565b80156106e85780601f106106bd576101008083540402835291602001916106e8565b820191906000526020600020905b8154815290600101906020018083116106cb57829003601f168201915b50505050508152602001600282015481525050815260200190600101906105e6565b50505050905090565b60006107c96040518060400160405280601d81526020017f546865206c6174657374207061727469636970616e7420697320257321000000815250600260016002805490506107629190611200565b81548110610799577f4e487b7100000000000000000000000000000000000000000000000000000000600052603260045260246000fd5b9060005260206000200160009054906101000a900473ffffffffffffffffffffffffffffffffffffffff1661097c565b600260016002805490506107dd9190611200565b81548110610814577f4e487b7100000000000000000000000000000000000000000000000000000000600052603260045260246000fd5b9060005260206000200160009054906101000a900473ffffffffffffffffffffffffffffffffffffffff16905090565b6108da816040516024016108589190610f66565b6040516020818303038152906040527f41304fac000000000000000000000000000000000000000000000000000000007bffffffffffffffffffffffffffffffffffffffffffffffffffffffff19166020820180517bffffffffffffffffffffffffffffffffffffffffffffffffffffffff8381831617835250505050610ab4565b50565b6109778383836040516024016108f593929190610fb8565b6040516020818303038152906040527fe0e9ad4f000000000000000000000000000000000000000000000000000000007bffffffffffffffffffffffffffffffffffffffffffffffffffffffff19166020820180517bffffffffffffffffffffffffffffffffffffffffffffffffffffffff8381831617835250505050610ab4565b505050565b610a148282604051602401610992929190610f88565b6040516020818303038152906040527f319af333000000000000000000000000000000000000000000000000000000007bffffffffffffffffffffffffffffffffffffffffffffffffffffffff19166020820180517bffffffffffffffffffffffffffffffffffffffffffffffffffffffff8381831617835250505050610ab4565b5050565b610ab08282604051602401610a2e929190610ffd565b6040516020818303038152906040527f9710a9d0000000000000000000000000000000000000000000000000000000007bffffffffffffffffffffffffffffffffffffffffffffffffffffffff19166020820180517bffffffffffffffffffffffffffffffffffffffffffffffffffffffff8381831617835250505050610ab4565b5050565b60008151905060006a636f6e736f6c652e6c6f679050602083016000808483855afa5050505050565b828054610ae9906112b2565b90600052602060002090601f016020900481019282610b0b5760008555610b52565b82601f10610b2457805160ff1916838001178555610b52565b82800160010185558215610b52579182015b82811115610b51578251825591602001919060010190610b36565b5b509050610b5f9190610b63565b5090565b5b80821115610b7c576000816000905550600101610b64565b5090565b6000610b93610b8e84611109565b6110d8565b905082815260208101848484011115610bab57600080fd5b610bb6848285611270565b509392505050565b600081359050610bcd816113e2565b92915050565b600082601f830112610be457600080fd5b8135610bf4848260208601610b80565b91505092915050565b600060208284031215610c0f57600080fd5b6000610c1d84828501610bbe565b91505092915050565b600060208284031215610c3857600080fd5b600082013567ffffffffffffffff811115610c5257600080fd5b610c5e84828501610bd3565b91505092915050565b6000610c738383610ea6565b905092915050565b610c8481611234565b82525050565b610c9381611234565b82525050565b6000610ca482611149565b610cae818561116c565b935083602082028501610cc085611139565b8060005b85811015610cfc5784840389528151610cdd8582610c67565b9450610ce88361115f565b925060208a01995050600181019050610cc4565b50829750879550505050505092915050565b6000610d1982611154565b610d238185611188565b9350610d3381856020860161127f565b610d3c816113d1565b840191505092915050565b6000610d5282611154565b610d5c8185611199565b9350610d6c81856020860161127f565b610d75816113d1565b840191505092915050565b6000610d8d602783611199565b91507f4661696c656420746f207769746864726177206d6f6e65792066726f6d20636f60008301527f6e74726163742e000000000000000000000000000000000000000000000000006020830152604082019050919050565b6000610df3600883611199565b91507f576169742033306d0000000000000000000000000000000000000000000000006000830152602082019050919050565b6000610e33603583611199565b91507f547279696e6720746f207769746864726177206d6f7265206d6f6e657920746860008301527f616e207468657920636f6e7472616374206861732e00000000000000000000006020830152604082019050919050565b6000610e9960008361117d565b9150600082019050919050565b6000606083016000830151610ebe6000860182610c7b565b5060208301518482036020860152610ed68282610d0e565b9150506040830151610eeb6040860182610ef6565b508091505092915050565b610eff81611266565b82525050565b610f0e81611266565b82525050565b6000610f1f82610e8c565b9150819050919050565b6000602082019050610f3e6000830184610c8a565b92915050565b60006020820190508181036000830152610f5e8184610c99565b905092915050565b60006020820190508181036000830152610f808184610d47565b905092915050565b60006040820190508181036000830152610fa28185610d47565b9050610fb16020830184610c8a565b9392505050565b60006060820190508181036000830152610fd28186610d47565b9050610fe16020830185610c8a565b8181036040830152610ff38184610d47565b9050949350505050565b600060408201905081810360008301526110178185610d47565b90506110266020830184610f05565b9392505050565b6000602082019050818103600083015261104681610d80565b9050919050565b6000602082019050818103600083015261106681610de6565b9050919050565b6000602082019050818103600083015261108681610e26565b9050919050565b60006020820190506110a26000830184610f05565b92915050565b60006040820190506110bd6000830185610f05565b81810360208301526110cf8184610d47565b90509392505050565b6000604051905081810181811067ffffffffffffffff821117156110ff576110fe6113a2565b5b8060405250919050565b600067ffffffffffffffff821115611124576111236113a2565b5b601f19601f8301169050602081019050919050565b6000819050602082019050919050565b600081519050919050565b600081519050919050565b6000602082019050919050565b600082825260208201905092915050565b600081905092915050565b600082825260208201905092915050565b600082825260208201905092915050565b60006111b582611266565b91506111c083611266565b9250827fffffffffffffffffffffffffffffffffffffffffffffffffffffffffffffffff038211156111f5576111f4611315565b5b828201905092915050565b600061120b82611266565b915061121683611266565b92508282101561122957611228611315565b5b828203905092915050565b600061123f82611246565b9050919050565b600073ffffffffffffffffffffffffffffffffffffffff82169050919050565b6000819050919050565b82818337600083830152505050565b60005b8381101561129d578082015181840152602081019050611282565b838111156112ac576000848401525b50505050565b600060028204905060018216806112ca57607f821691505b602082108114156112de576112dd611373565b5b50919050565b60006112ef82611266565b91506112fa83611266565b92508261130a57611309611344565b5b828206905092915050565b7f4e487b7100000000000000000000000000000000000000000000000000000000600052601160045260246000fd5b7f4e487b7100000000000000000000000000000000000000000000000000000000600052601260045260246000fd5b7f4e487b7100000000000000000000000000000000000000000000000000000000600052602260045260246000fd5b7f4e487b7100000000000000000000000000000000000000000000000000000000600052604160045260246000fd5b6000601f19601f8301169050919050565b6113eb81611234565b81146113f657600080fd5b5056fea264697066735822122051316d57ebc6f70ddf22289b33da76dff98fd082ca931427764814a57c67827464736f6c63430008000033596f20796f2c204920616d206120636f6e747261637420616e64204920616d20736d617274",
  "linkReferences": {},
  "deployedLinkReferences": {}
}